:030000000208876C
:0C088700787FE4F6D8FD758107020800B8
:0C087A007F057E847D96DDFEDEFADFF651
:01088600224F
:10080000D2A4D2A3D2A275803F12087AD2A4D2A3D6
:10081000D2A275800612087AD2A4D2A3D2A2758081
:100820005B12087AD2A4D2A3D2A275804F12087AA2
:10083000D2A4D2A3D2A275806612087AD2A4D2A37F
:10084000D2A275806D12087AD2A4D2A3D2A27580EA
:100850007D12087AD2A4D2A3D2A275800712087A98
:10086000D2A4D2A3D2A275807F12087AD2A4D2A336
:0A087000D2A275806F12087A80860C
:00000001FF
