:030000000209D022
:0C09D000787FE4F6D8FD75810C02091850
:10080000000E1B7F7F1B0E0000040C187F7F1B0E49
:1008100000080C057F7F1E0CC00041221A7C7D1A47
:10082000006061120A7E7F0800060E080B3E3E0B38
:1008300000030B080B3E3E0B00060E08093F3E0B63
:10084000000E137E7E1F0E0008137E7E121D0C000C
:1008500009127E7F1013030009127E7F101C0C000A
:10086000000C157E7E170E000030380D7E7F1D08AF
:10087000C0C0301B7C7F0800000037F8FA3400004D
:1008800000001B7C7C1A01000000091E7C7F180000
:1008900000001B7C7C1B00000000091E7C7F1800F0
:1008A00000001B7C7C1B00000810167C7F100800D9
:1008B0000010137C7E1800000008137C7F101000CD
:1008C000000812FCFD3A0000000812FCFC22100097
:1008D000000061127C7F106000002011127C7E19E4
:1008E000000000310A7C7E0D00002011127C7E1970
:1008F000000000310A7C7E0D00002011127C7E1960
:10090000000000310A7C7E0D00002011127C7E194F
:08091000000000310A7C7E0D9D
:10091800E4F509F50A1209DCE4F508E5082509FFFC
:10092800E433FE74002FF58274083EF583E493FDEA
:100938007C00AF081209950508E508C3940840DB58
:10094800050AE50AD3941940CFE4F50A7408250985
:10095800F509D39410748094A740BDE4F50980B8D4
:0A09B700EF1FAC0670011E4C600E2D
:0C09C100750B02750CC7D50CFDD50BFAA8
:0309CD0080E8229D
:02096800AD07D9
:10096A00E4FB74807E00A803088006CEA2E713CEBB
:10097A0013D8F8FFEDF582EF558224FF92B4D2B670
:0A098A00C2B60BBB08DCD2B5C2B543
:010994002240
:10099500AA07AF05120968AF027480A8070880028C
:1009A500C313D8FCF4F5807F017E001209B775806A
:0209B500FF221F
:0509DC00C2B6C2B52205
:00000001FF
